:020000021000EC
:10C0000000800020B91F020001200200032002006E
:10C010000000000000000000000000000000000020
:10C0200000000000000000000000000005200200E9
:10C0300000000000000000000720020009200200AC
:10C040000B2002000B200200F5FC01002D0A02006B
:10C050000B20020000000000CD0502000B200200B2
:10C060000B2002000B2002000B2002000B2002001C
:10C070000B2002000B2002000B2002000B2002000C
:10C080000B20020099F101000B2002000B2002009E
:10C090007DF201000B200200B11C02000B20020007
:10C0A0000B2002000B200200000000000000000036
:10C0B0000000000000000000000000000000000080
:10C0C000164B002B00D1144B9D46402292029A1A27
:10C0D000924600218B460F461348144A121A00F06C
:10C0E00067F80F4B002B00D098470E4B002B00D069
:10C0F00098470020002104000D000D48002802D0C0
:10C100000C4800E000BF00F02DF82000290000F0EE
:10C1100085F800F011F8C0460000080000800020FB
:10C120000000000000000000342900206C480020BE
:10C130000000000000000000084B10B50400002BB8
:10C1400002D0002100E000BF054B1868836A002B75
:10C1500000D09847200000F033F8C04600000000EF
:10C16000B44F02000E4B70B500251E000D4CE41AB2
:10C17000A410A54204D0AB00F35898470135F8E766
:10C1800008F00CFF084B00251E00084CE41AA41010
:10C19000A54204D0AB00F35898470135F8E770BDCD
:10C1A000082900200829002008290020082900204B
:10C1B00003008218934202D019700133FAE77047E6
:10C1C000FEE7C0463BDF704710B501F033FB0028A7
:10C1D00004D0034A0021002002F0E6FE10BDC04654
:10C1E000C9C1010010B50C0011000122084B1A70E2
:10C1F00058609C600C3318001F3207F077FFBFF3C4
:10C200004F8F044A044BDA60BFF34F8FFEE7C046FE
:10C21000082900200400FA0500ED00E010B500F048
:10C2200047FE1B4807F0BEFD1A4C2378002B25D192
:10C2300019491A4807F0B6FD194B1A4A1A491B4802
:10C2400007F0B0FDA023A3218022A120DB05C900B7
:10C250005200C0005A501A5092185A5014495A505D
:10C2600000F026FD0120FFF7ADFF00F073F800F0AD
:10C27000EFF800F055FE02F0A9FAFEE72200A368ED
:10C280000C3261680B4807F08DFD00232370CFE767
:10C29000B84F020008290020FC4F020004500200A1
:10C2A00024500200145002001C5002002C500200C6
:10C2B0000C050000DC4F020010B5084807F072FDC5
:10C2C0000022074B80211A70A123A0224900DB0025
:10C2D000D205D150034800F0FBF810BD5C500200BD
:10C2E000544000207017000010B5074807F05AFDB1
:10C2F0000022064B80211A70A022054B4900D2056E
:10C30000D15000F0E7F810BD6C50020054400020FE
:10C310000C05000030B587B0002A0FD00A4DD2B20C
:10C32000684601F091F96C462B0007CC07C307CC97
:10C3300007C3064A0021002002F036FE044800F040
:10C34000C7F807B030BDC046C0420020C9C10100D7
:10C350007017000010B582B000246B461C705C7032
:10C36000074B6846019303F019FC064B0649074A40
:10C37000585802405A50A022D2009C5002B010BD22
:10C38000010002000070004004050000FF00FFFFF4
:10C390008368591A81607047C3688068181A7047AB
:10C3A000F8B507000C001600002813D0002C17D099
:10C3B000002E1BD0A619002504E001350134ADB2D2
:10C3C000B44205D02100380003F0EEFE0028F4D07E
:10C3D0002800F8BD002200210020FFF703FFE5E759
:10C3E000002200210020FFF7FDFEE1E70025EFE736
:10C3F00036DF704737DF70470122014B1A707047F4
:10C40000702D00208021A022024B8900D205D1503E
:10C410007047C0460C05000010B5054803F096FBB8
:10C420000449054A8C4613686344136010BDC04636
:10C430006C2D0020A08601007C2D002010B5034843
:10C4400007F0B0FC00F004FD10BDC04680500200B3
:10C45000002310B582B000930722144B0C2100205A
:10C4600003F0C6F9002803D000220021FFF7BAFE2E
:10C470000F4A00210F4803F03FFA0F4A00210F48EE
:10C4800003F03AFA0E4A00210E4803F035FA0E4C3A
:10C490000E4A0121200003F02FFAC8212068002253
:10C4A000890303F05DFA02B010BDC04634290020B4
:10C4B000F9C30100742D00203DC40100842D00202B
:10C4C00005C40100782D0020802D002019C4010032
:10C4D0007047C04610B5024B186803F0C9FA10BD8A
:10C4E000842D002070B504000D4B1D68280003F05A
:10C4F000BFFA0C4A2300944200D91300FA22590CC7
:10C50000D8030023520080185941FA2200239200D8
:10C5100005F030FF00220100280003F021FA70BD71
:10C52000782D0020D0FB010010B5024B186803F0F5
:10C530009FFA10BD782D002030B585B000236A46E3
:10C54000D371374B04255B68DB05DB0D2ED16B46C1
:10C55000D81DFFF74DFF022850D0002850D1314B95
:10C5600002A81C6803F0F2FA03AA2100029803F063
:10C57000F7FA039806F0B2FA2B4905F0F3FF05F03D
:10C5800019FF2A4B1B68C418012D0CD062B66B46EC
:10C59000D879FFF72FFF022302009A4303D000222D
:10C5A0000021FFF71FFE200005B030BD103B5AB23E
:10C5B000002A2ADB9208C0321D49920052580321FA
:10C5C0000B40DB00DA4093090B40DDB2012BBED1FA
:10C5D000144B02A81C6803F0B9FA03AA21000298C0
:10C5E00003F0BEFA039806F079FA0F4905F0BAFF96
:10C5F00005F0E0FE0D4B1B68C418D4E772B6AEE739
:10C6000000220021FFF7EEFDA9E70F220949DBB266
:10C610008C461A40083A9208920062445268CEE76B
:10C6200000ED00E06C2D00200000FA3C7C2D002085
:10C6300000E100E018ED00E0F0B55F464D464446ED
:10C640005646F0B485B0FFF777FF514F514A3B682B
:10C65000514DC41A944279D96A46D61D4F4A934621
:10C660004F4A92464F4A914631E03000FFF7C0FEF4
:10C67000022800D173E0002800D072E05B461C68FD
:10C6800002A803F063FA03AA2100029803F068FAF3
:10C69000039806F023FA444905F064FF05F08AFE8A
:10C6A00053461B68C4184346012B0BD062B6307842
:10C6B000FFF7A0FE022302009A4303D000220021CC
:10C6C000FFF790FD3B68334AE41A94423ED92A684A
:10C6D00001322A60FA229200944663443B600023B0
:10C6E00033704B4604225B689046DB05DB0DBCD003
:10C6F000103B5AB2002A39DB032092082B49C03282
:10C70000920052580340D9001300CB409B090340CC
:10C71000DAB29046012BA8D15B461C6802A803F050
:10C7200015FA03AA2100029803F01AFA039806F0FA
:10C73000D5F91D4905F016FF05F03CFE53461B6870
:10C74000144AC4183B68E41A9442C0D828686C6044
:10C7500005B03CBC90469946A246AB46F0BD72B6C9
:10C760008CE700220021FFF73DFD87E70F22D9B2B9
:10C770000F4B0A409C46083A9208920062441368A4
:10C7800003221140C900CB409B091340C0E7C046BB
:10C7900060480020E7030000584800206C2D00206E
:10C7A0007C2D002000ED00E00000FA3C00E100E0FC
:10C7B0001CED00E0014B58687047C0465848002007
:10C7C00070B53C4B84B018606A460023D3713A4B75
:10C7D0000C005B680426DB05DB0D30D16B46D81DF1
:10C7E000FFF706FE022852D0002852D1334B02A890
:10C7F0001D6803F0ABF903AA2900029803F0B0F911
:10C80000039806F06BF92E4905F0ACFE05F0D2FD59
:10C810002C4B1B68C518012E0CD062B66B46D8791C
:10C82000FFF7E8FD022302009A4303D00022002113
:10C83000FFF7D8FC244B2C1B1C6004B070BD103BD0
:10C840005AB2002A2ADB9208C0322049920052587C
:10C8500003210B40DB00DA4093090B40DEB2012BD1
:10C86000BCD1164B02A81D6803F070F903AA290079
:10C87000029803F075F9039806F030F9104905F0B5
:10C8800071FE05F097FD0F4B1B68C518D2E772B615
:10C89000ACE700220021FFF7A5FCA7E70F220C4917
:10C8A000DBB28C461A40083A920892006244526801
:10C8B000CEE7C0465848002000ED00E06C2D002077
:10C8C0000000FA3C7C2D00206048002000E100E0E0
:10C8D00018ED00E0014B18687047C046882D002015
:10C8E00071DF704776DF704778DF70477CDF704715
:10C8F0007FDF704782DF7047A9DF704760DF7047D6
:10C9000010B5040005F0A2F8200000F0EBFD10BD0A
:10C910000A0010B50100024807F044FAFEE7C046DD
:10C92000F45102000122014B1A707047E8420020C6
:10C9300070B590B0FFF7CEFF07F024F80022294B26
:10C9400006F02EFD06F0A6FF6438FF2800DDFF206C
:10C950000025254BC0B2254A18705D7012785978B1
:10C9600001AE0A435A70224A5978127804AC501E1C
:10C97000824152000A435A701E4A20001278511E0A
:10C980008A41597892000A431B495A708A78039366
:10C99000D2B21A710A88002192B25A800B23174A28
:10C9A000B38032803132FF32FFF702FC0223237062
:10C9B0000433E370053B2382114B20000021A57056
:10C9C0006361666204F0B0FA041E06D10D4807F0F8
:10C9D000E9F90D4B1C7010B070BD01000B4807F059
:10C9E000E1F9F8E700005940DC420020D84200207D
:10C9F000304000205C4000203C40002000FFFFFF52
:10CA0000BC2800205C520200E842002030520200A4
:10CA1000F0B54F464646C0B4038887B00400522B99
:10CA20000ED87C499A008A5897467B4B002218887A
:10CA300000210323FFF760FF002800D089E023884E
:10CA4000764E192B57D0112B26D1754B1A78002A08
:10CA500000D0C3E05D78EDB2002D00D0D3E001221C
:10CA6000704B714F1A703B78002B00D097E002207A
:10CA700004F020FF002800D085E02100300005F000
:10CA800039F907B00CBC90469946F0BD811D0622CD
:10CA9000664807F07EF9614E200004F029FFECE7BC
:10CAA00001239846624B5D4E9946624D2800FFF780
:10CAB00073FC00281CD04346002B19D0142201A976
:10CAC0002800FFF76DFC01A907000200300005F007
:10CAD00045FA0028EAD048455AD128003900FFF726
:10CAE00057FC002328009846FFF756FC0028E2D1A7
:10CAF0002388192BA7D1A37914E0474B82881A8089
:10CB0000FFF7DAFB2388454E9BE70122424B524256
:10CB10001A80FFF7E9FB2388404E92E78379022BC6
:10CB200073D03E4E002B00D18FE7200004F0E0FED2
:10CB3000A3E7063001F09EFF2388384E81E7364B8D
:10CB40003D4A188800213D4BFFF7D2FE002800D156
:10CB500075E700220021FFF745FB70E7384D0A22F8
:10CB600029000E30123107F005F9304B1B79DA0736
:10CB70002ED5002817D129009A0722D5314A5B0704
:10CB800016D5314B15E000220021FFF72BFB74E78F
:10CB900000288BD000220021FFF724FB86E7FFF757
:10CBA000C7FE3D7063E700219A070AD500210022E5
:10CBB000002319480088FFF79DFE002800D13EE7BA
:10CBC000C7E700225B07F3D50028F1D11E4BF0E741
:10CBD00000219A07F5D50028D0D0E7E700210022F0
:10CBE000104B1A481A7007F0DDF80023002598460C
:10CBF000174F7B59002B02D0984743467B51043591
:10CC00000C2DF6D139E70121E9E702F001F823887C
:10CC1000024E16E7A8500200C0280020483000202D
:10CC200034480020FC2D0020E84200202430002061
:10CC300004300000002E002010300020C428002006
:10CC40002C3000208C2D0020A42D002074520200D6
:10CC500018300020030010B51B0C82B0019082B286
:10CC6000D8B20E4B01A99A4215D0FF2800D100205E
:10CC70000B4C0A8088700422200007F08AF8218873
:10CC8000A27889B2D2B2074807F08CF80122064B8D
:10CC90001A7002B010BD054B1A88E6E7FFFF0000CE
:10CCA0003C40002098520200E8420020F042002060
:10CCB00030B5002387B048225749082004F0BEFF52
:10CCC000002800D0A2E004AC082200212000FFF7D9
:10CCD0006FFA0023012263602378200093432370BE
:10CCE000FFF70CFE002800D08BE04C4804F0CCFF8E
:10CCF000002800D080E04A4804F0D0FF002803D08C
:10CD000000220021FFF76EFA0F2101222378454D02
:10CD10008B43134310220B4013432800237007F06A
:10CD2000DEF9290082B22000FFF7E0FD00285ED185
:10CD300080208000FFF7D8FD002803D000220021CA
:10CD4000FFF750FA002104222000FFF731FA364B9A
:10CD500021003648049304F0FDFF002803D0002290
:10CD60000021FFF73FFA0122314B200019780A43D6
:10CD7000E1210A400C210A43CD210A401A70072202
:10CD80005A7009329A70FFF7ABFD607823796279A7
:10CD9000A1790290A0780190E0780090254807F0F2
:10CDA00001F8112000220621684402F0D7F8224D34
:10CDB00001002880214806F0F5FF2A88204B2149F0
:10CDC0001A8000229A7062781F4B20485A71A2780C
:10CDD0009A71E278DA7122791A7262795A72A279BA
:10CDE0009A728022920003F0B7F907B030BD00229A
:10CDF0000021FFF7F7F99BE700220021FFF7F2F986
:10CE000079E700220021FFF7EDF96EE7002200210B
:10CE1000FFF7E8F957E7C046B42D002011CA01001A
:10CE200001C90100FC4F020015C301004830002079
:10CE300010300020C4520200F0420020F0520200E4
:10CE40003C400020102E0020DC420020002E00205C
:10CE500010B5034B13211888FFF744FD10BDC046E1
:10CE6000C02800200A0010B50100064805F076F839
:10CE70000023002803D10448FFF72AFB01231800F0
:10CE800010BDC046483000207017000010B582B0B9
:10CE90006A460378D41D002B03D007E0207802F007
:10CEA00029F8200003F010F90028F7D002B010BDD7
:10CEB00030B58BB003A802000B4B32CB32C20A2331
:10CEC00000226B441A80094A00930692202207929E
:10CED000074A0323089280225200099206A9054AB4
:10CEE00002F09AFF0BB030BD2453020064300020E2
:10CEF000843000208DCE010082B0C3B20190012B9E
:10CF000001D002B07047054A1368022B03D0032BEF
:10CF100001D0012BF5D100231360F2E75840002027
:10CF2000A023A122012130B5DB05D2009950F932AE
:10CF300089B00231FF32995001A90A000A4B31CB66
:10CF400031C231CB31C21B680020136003F0E6FD13
:10CF5000002802D0054806F025FF0549002003F00F
:10CF600097FE09B030BDC046305302005453020052
:10CF7000F9CE010010B5002003F078FE01384342DD
:10CF80005841C0B210BDC04670B5052684B0124CE1
:10CF900003AD2368002B06D02368DBB2062B19D023
:10CFA0002368002BF8D12368002BF2D16A462B703E
:10CFB0006B700233167202A9009301222B0000202D
:10CFC00003F078FE002003F051FE0128FAD06B78C0
:10CFD000DB07DED404B070BD5840002070B50E4CA5
:10CFE0000600256884B00120002D12D1032303AD73
:10CFF0002B70330C6B70330AAB70022392B2236038
:10D00000EE700B00009229000422002003F052FE73
:10D01000002004B070BDC04658400020F0B547461F
:10D0200080B4184D07002B6884B00C001600012056
:10D03000002B03D004B004BC9046F0BD062203A927
:10D040000A70114A0093904613000020012203F059
:10D0500031FE002003F00AFE0128FAD002232370DB
:10D060003B0C63703B0AA3700323E7702B60002323
:10D07000B2B2009321004346002003F01BFE0020C3
:10D08000D8E7C0465840002064480020F0B5474625
:10D0900080B4574C88B02368002B04D0002008B01F
:10D0A00004BC9046F0BD0622524E06AD2A702900FF
:10D0B0000093053A3300002003F0FCFD002003F04C
:10D0C000D5FD0128FAD0012200232A706B7022605E
:10D0D0002900009301323300002003F0EBFD002013
:10D0E00003F0C4FD0128FAD00523022798462368DF
:10D0F000002B06D02368DBB2062B19D02368002B47
:10D10000F8D12368002BF2D16A4641462B70117486
:10D110006B70012200972B0004A9002003F0CAFDC8
:10D12000002003F0A3FD0128FAD06B78DB07DED4E2
:10D13000314908221C3104A806F02BFE2368002B7D
:10D14000ACD1062229002A7000200093053A330052
:10D1500003F0B0FD002003F089FD0128FAD002237E
:10D1600004930133236000230822009304A93300B1
:10D17000002003F09FFD052702262368002B06D020
:10D180002368DBB2062B18D02368002BF8D1236864
:10D19000002BF2D16A462B7017736B700122009638
:10D1A0002B0003A9002003F085FD002003F05EFDA5
:10D1B0000128FAD06B78DB07DFD42368002B00D07E
:10D1C0006CE703230393013B23600633009304229F
:10D1D0002B0003A9002003F06DFD2B790120012B0A
:10D1E00000D15CE72978054806F0DCFD56E7C0462B
:10D1F0005840002064480020305302005C53020075
:10D2000010B50C4B1A78002A12D101320A481A7054
:10D2100006F0C8FD094B002218682F2102F0A0FB80
:10D22000074B00221868074902F09AFBFFF77AFBC8
:10D2300010BDC0463040002000540200883100205C
:10D24000843100206606000070B5184C2378002B4E
:10D2500000D170BD0023164A164D1370164A296876
:10D260001360164A164813602B68164ADB01D31860
:10D27000154ADA672A797B331A7006F093FD2A681B
:10D280000023122A00DC531C2B6000236B602370E8
:10D290000E4B186802F0ECFB0D4B186802F0E8FB2F
:10D2A00000F006F9FFF73EFBD3E7C0463040002010
:10D2B000BC420020B442002034400020384000200E
:10D2C0001854020030360020FFFFFF7F8831002015
:10D2D0008431002029DF704728DF7047F0B54746CA
:10D2E00080B45E4D2B78002B21D15D4B5D4C1A88AC
:10D2F000E188914203D19A78617991421CD01A88D1
:10D300002100E2809B7808226371FA230A202371AE
:10D31000FFF784FEFFF738FE6279E188524806F095
:10D3200041FD524C0023237004BC9046F0BD504890
:10D3300006F038FD4D4CF5E74E4C4F4B21681B680D
:10D34000994210D04D4FCE01BB19DB6FBA599342B1
:10D3500025D04B4A934222D00023122900DC4B1CDB
:10D360002360424CDEE7474BA5681B689D4214D002
:10D370006E01454F73199B00FB181A00803212682A
:10D380005B689A4228D0414B1340414A934223D0D4
:10D390000023082D00DC6B1CA360344CC2E76468DA
:10D3A0003C48220006F0FEFC3B48E401001B830AD7
:10D3B0006533DBB2602B46D80123002220242B707A
:10D3C000364BB9191A70DC601A61586099602032C6
:10D3D000FFF780FF254CA5E7E368290098461A006F
:10D3E0002F4806F0DFFC4346711989007918D801EF
:10D3F0008422FFF713FEFFF7C7FDA268E16853011F
:10D400009B189B00FF180223264880373B60063399
:10D41000814200DC4B1CE3600023082A00DC531C23
:10D42000A360124C2378002B00D07BE71E4A00211A
:10D43000002001F0B9FD002800D173E7002200218F
:10D44000FEF7D0FE6EE7194806F0ACFC0022002182
:10D450000020FEF7C7FE054C64E7C0466548002083
:10D460003C4000203C48002014550200A031002020
:10D47000CC54020044400020B4420020303600204A
:10D48000FFFFFF7F88400020F4420020FFFFFFBF26
:10D49000FFFFFF3F4455020080EF03008C31002066
:10D4A00098550200FE070000DDD201007855020009
:10D4B00010B50A4C2378002B00D010BD084A00217B
:10D4C000002001F071FD002802D101232370F4E750
:10D4D00000220021FEF786FEF7E7C046A0310020BB
:10D4E000DDD20100F0B5040087B003281AD002286D
:10D4F00016D1494E3578002D40D0012D10D1474B23
:10D50000474859680523C9105B42591AC9B206F049
:10D5100049FC0022434B444C1A702378002B23D043
:10D5200007B0F0BD3C4B1A78002A09D0012AF7D188
:10D530001C693E4806F036FC2000FFF7CDFEEFE701
:10D5400004333B4870CB06F02DFC3200290020004C
:10D55000FFF7C0FEE4E70023122800DC431C324C36
:10D560003B602378002BDBD1324A0021002001F000
:10D570001BFD002841D101232370D1E7274F2E48FE
:10D580007A68396806F00EFC38682C4AC301D31853
:10D59000DC67052423497A680D70D3106442284D56
:10D5A000E31ADBB2AA4224DC0132D510EDB2641BCF
:10D5B000E4B27A60A342CED00023122800DC431CE0
:10D5C0003B6060235B1BDBB2602B1BD8012701ADE6
:10D5D00014220F7028000021FEF7EAFD33002F709F
:10D5E000059407CD07C3200006CD06C3FFF774FEE0
:10D5F00096E7FB2400250022DBE700220021FEF74E
:10D60000F1FDB8E70F4806F0CDFB00220021002015
:10D61000FEF7E8FD84E7C0468C310020444000203E
:10D620008858020065480020A03100202C580200D4
:10D6300000580200DDD201005858020030360020A8
:10D640000603000084560200F0B587B005000F0005
:10D650001600FEF771FF6C460090002E0AD03B7852
:10D66000E375303BDBB2432B00D9B1E0624A9B004B
:10D67000D3589F46614806F095FBFF23E3752B00C6
:10D6800007CC07C307CC07C3280007B0F0BD5C4830
:10D6900006F088FB072E00D1A3E00A2E26D1791CC4
:10D6A000042201A806F075FB791D022202A806F0EB
:10D6B00070FB544806F076FB5323F91D022205A89F
:10D6C000E37506F066FB3900162009310122684433
:10D6D00006F05FFBD3E74C4806F064FB012E05D152
:10D6E000CDE74A4806F05EFB032E73D0FF2348487F
:10D6F000E37506F057FBC2E7464806F053FB092ED8
:10D70000F4D1791C042201A806F043FB791D022202
:10D7100002A806F03EFB0A20F91D0222684406F02A
:10D7200038FBACE73C4806F03DFB052EDED1791C0A
:10D73000042201A842E0012ED8D1384806F032FB7D
:10D740009DE7374806F02EFB112ECFD1791C04221D
:10D7500001A806F01EFB791D022202A806F019FBA3
:10D760000A20F91D0222684406F013FB3900022248
:10D77000093104A806F00DFB390012200B310222FA
:10D78000684406F006FB390002220D3103A806F0BA
:10D7900000FB39000E200F310222684406F0F9FA2E
:10D7A0006DE7204806F0FEFA072E9FD1791C04226F
:10D7B00001A806F0EEFA0222791D02A806F0E9FAA5
:10D7C000194B1A4A1A6000225A62013A9A6056E7C7
:10D7D000174850E70A20791C0222684406F0D9FA5B
:10D7E0004DE7791C042201A806F0D3FA791D022224
:10D7F00002A806F0CEFA42E7E0580200545A0200AE
:10D80000785A0200AC5A0200E45A0200885B020017
:10D81000985A0200C45A0200685B0200285B0200AA
:10D82000045B0200485B020088420020FFFF00000A
:10D83000A85B0200F0B556464D465F464446F0B43C
:10D84000BE4C93B00CAB1A00210061C961C261C922
:10D8500061C20C9A1F8990460D9A5E8901929A893D
:10D86000DD7D0492DA8903921A8A02925A8A05921D
:10D870009A8A92469A7DE37D914600229346002B38
:10D8800034D1622D3AD0622D21D9712D00D1E0E042
:10D890006ED8692D00D0E4E0002E00D128E1351CBF
:10D8A0001E2E00D910E1FA20ADB280006843FEF7C9
:10D8B00019FE8021A123A0228900DB00D205D150CE
:10D8C0009F48290006F06EFA0023E37506E0302D2C
:10D8D00000D1EEE000D981E0002DF5D1584613B01B
:10D8E0003CBC90469946A246AB46F0BDFEF724FEEE
:10D8F000944B186001239B46622DC4D1924D934BEB
:10D900002968994200D1FFE06B6A053B022B00D8E1
:10D9100053E24B1C00D171E36B68032B00D1D5E0BF
:10D92000042B00D05EE28A4C2368994200D125E3A3
:10D93000884E300001F0C2FA2B6806962360AB686F
:10D940005A1C00D165E3EA68D21A052A00DD31E2EB
:10D9500092001100A962991C069B28009C46890030
:10D9600061440431103006F014FA06236B62B5E707
:10D97000722D00D0A5E0744D744A2B68934200D1FB
:10D9800029E16A6AD11E012900D85FE1072A00D186
:10D990005CE15A1C00D1A0E06A68002A00D1E8E2EC
:10D9A00000DADDE2022A00DDDAE26B49DB015B1816
:10D9B0000793A9684B1C00D1E9E2EB685A1A142AB4
:10D9C00000DD1422079B28009C4661440A31103078
:10D9D000AA6206F0DEF904236B627FE7312D43D0A3
:10D9E000532D00D070E7584E736A012B00D179E2B5
:10D9F0005A4B08A91A783274594A12781B787274F3
:10DA0000584A1278B27400220A92CA80002B06D0BB
:10DA1000FEF712FE0A90FEF7CDFE08ABD880524CFE
:10DA200004220AA9200006F0B4F908AB991D0222CD
:10DA3000201D06F0AEF9FEF74DFF04220B900BA956
:10DA4000A01D06F0A6F90123133C63620C33A36208
:10DA500044E7464806F0A6F901F0FAF90023E37519
:10DA60003CE7702D00D02FE7374B99465B6A022BBD
:10DA700000D1C0E1002308AA0B931381374B1B7818
:10DA8000002B06D0FEF7D8FD0B90FEF793FE08ABF7
:10DA90001881374C04220BA9200006F07AF9201DCA
:10DAA00002220AA906F075F9022363610433A36117
:10DAB00014E7304806F076F9FFF7C6FB0023E3755C
:10DAC0000CE7732D8FD0FFE61E25ECE64B015918AD
:10DAD000294B8900CB18069331E728000E3310300C
:10DAE0000D220021AB62FEF763FB07236B62F5E6B4
:10DAF000FEF71AFD8021A022204B8900D205D150CB
:10DB00001F4806F04FF9DFE601235B422B60043328
:10DB10006B601C4B1868002800DC32E2421E0023B8
:10DB20009A4651469846013B9946174B124C174E60
:10DB30009C46174F0291AA4635E0C046C0420020DD
:10DB4000B45D02003048002088420020FFFF000042
:10DB5000A4310020A831002030360020D842002017
:10DB60005C400020304000209B420020845D020089
:10DB700098420020645D0200F44200200C05000081
:10DB8000A05D020088400020FFFFFFBF7E145F1BE6
:10DB9000FFFFFF3F65462B40BB420DD0002A18DD3A
:10DBA000013A824267D053019B189B00E3185968E1
:10DBB00080331B689942EDD1B74BCB18B342EDD8F7
:10DBC000019B994257D30123914602939846002A1C
:10DBD000E6DC0922E5E701235B422B6003336B603F
:10DBE000AE4B5A681E68002A00DD2E60002E00DC55
:10DBF000C9E1731E2A68AA4C91460022924602325D
:10DC0000029200229046A74AA74F94462A00554602
:10DC1000924602E0013BB3427DD0DA01A1589E4812
:10DC20000818B84205D8A218D26F914205D06245B3
:10DC300003D0002BEEDC1323EDE7019A91426AD367
:10DC400001229946012502929046F2E72800298D8B
:10DC50001030FFF707F9002800D13FE66B6A042B6C
:10DC600000D104E2072B00D1FAE1032B00D1B6E08A
:10DC700000236B6232E653461D004346029A9246E9
:10DC8000002B00D028E35346002B01D003236B6008
:10DC9000864B9846DB685C1E082B00DC844C824A6D
:10DCA000002791467F4A92462A00454690469C426C
:10DCB00022D0200001F0DCF80600200001F0EAF894
:10DCC000754BF3184B4503D886420CD050450AD00B
:10DCD0000137052F10DC082C02DD013CEB68E6E77C
:10DCE000734CEB68E3E7019B9E4205D34346042255
:10DCF0001C605A600027EEE745466B685121043BE3
:10DD0000584258412A68091A6A4806F04BF801231C
:10DD10005B42AB60E2E55346AA461D004346002B3A
:10DD200000D0D6E25346002B01D0029B6B605F4BC4
:10DD30005C68631E002C00DC27E100229046594AF3
:10DD4000002094462A005C4F574E2500914602E081
:10DD5000013BAB421DD0504CDA01A246BA1A116801
:10DD60008A44B24504D8D26F914208D0624506D0A9
:10DD7000013005280DDC002BEADC504BE9E7019A65
:10DD8000914206D34A4649461360424600204A6003
:10DD9000F1E74D466B684621002B03D04321012B50
:10DDA00000D187E12A68464805F0FCFF01235B4269
:10DDB000AB6093E514221421CCE52800298D1030A6
:10DDC000FFF750F8002800D188E56B6A062B00D1D8
:10DDD00079E1072B00D16FE1052B00D048E7002344
:10DDE000AB6045E7374805F0DDFF00220021002049
:10DDF000FEF7F8F9A3E54B464846198D1030FFF7BA
:10DE000031F8002800D169E500234A465362FEF745
:10DE100093FB43462C4AC01A0023904205D92B4954
:10DE200001338C4660449042F9D8019A3F189146DC
:10DE300099443A004946264805F0B4FF390048465F
:10DE4000FEF7BEFC234F3B78002B03D1FEF76AFDA3
:10DE500001233B70312D00D198E1702D00D033E5C6
:10DE600031001D4805F09EFF1C4B02985E431C4B81
:10DE70001E60002800D164300599002901D12D31A0
:10DE8000FF31049A002A00D10532039B002B00D1F8
:10DE90000A3300F0A1FF17E5FF3B83AAB44200203C
:10DEA00030360020FFFFFF7F7E145F1B44400020C0
:10DEB000FF070000905C020080EF030007030000F2
:10DEC000005C0200EC5C0200E703000018FCFFFFAE
:10DED000C85B0200D8420020345D020060EA000006
:10DEE0001C4800203000318D1030FEF7BBFF0028A9
:10DEF00000D1F3E400237362FEF71EFB4346C11A10
:10DF0000CF4B0026994205D9CE4A0136944661444A
:10DF10009942F9D8019B7F189C46664431003A002B
:10DF2000C94805F03FFF30003900FEF749FCC74EF5
:10DF30003378002B03D1FEF7F5FC01233370002367
:10DF4000C348E37505F02EFF532D00D0C6E45246BA
:10DF50000BAB1A804A469A700B98FEF77BFEBDE425
:10DF6000BC4805F01FFF002200210020FEF73AF90F
:10DF70001FE5B94ADB01D31A07931AE5B74B06939D
:10DF8000DDE40922CBE5132334E6B54BD5E62800C2
:10DF9000079C04222100103005F0FBFE2800210020
:10DFA00002220831143005F0F4FE2100280004316B
:10DFB0000422163005F0EDFE2800AA4B0BA91B68C1
:10DFC0001A3002220B8005F0E4FE6B68022B00D1B0
:10DFD000CBE0079AA44BD26F01929A4200D1C9E0DC
:10DFE0007223EB60A14C0AA9012220000B7005F0FE
:10DFF000D0FE0323A3600A33E3606FE42800092303
:10E00000103009220021AB62FEF7D2F807236B62C1
:10E0100064E4069C237AEB60607A643005F070FC5F
:10E02000934B002204F098FD05F000FD0B902800B2
:10E03000211D0422103005F0ACFE280004220BA99B
:10E04000143005F0A6FE230028000833190018300C
:10E05000012205F09EFE05236B620433AB623DE4B2
:10E06000844805F09FFE0023E3759B4600E6A96AFD
:10E07000AB688C4663441A00AB60EB689A4200DAE6
:10E08000F6E56A684621002A03D00339012A00D147
:10E09000CFE02A68784805F085FE6B68012B00D137
:10E0A00080E0022B6ED0002B00D19AE001235B426E
:10E0B000AB60DDE50F3175E6704805F073FE0023B7
:10E0C000E3759B46D4E5AB6A9A08AB689C46EB685F
:10E0D0006244AA609A4200DACAE56A686648111F7B
:10E0E0004A1E91412A68503105F05CFE6B68032B93
:10E0F00075D0042BDAD1624A2B689046614F624E8C
:10E100000820BB4200DC581C286000F0B1FE04006F
:10E11000286800F0BFFE5D4BE318B34202D884428A
:10E1200000D1CFE042462B68D2689342E8D1032366
:10E130006B60574B1A682A602A681E68554C524F0C
:10E140000FE0013253019B189B00E31859684F48B8
:10E150000818B84203D880331B6899420FD0B242E6
:10E1600010D0082AEDDD0022ECE74B4B5B68EB603A
:10E17000DBB237E77B23079AD35CEB6032E72A6098
:10E18000B24293D101235B422B608FE731004348B9
:10E1900005F008FE424B5E43424B1E60FFF730F82D
:10E1A000FFF792FB3C4B984643462F4A1E683E4C75
:10E1B0002B68354F94460EE00133DA01A1583348FD
:10E1C0000818B84205D8A218D26F914233D06245E0
:10E1D00031D0B34225D0122BEEDD0023EDE72C4BDE
:10E1E000AAE7274A2B6854681B4A304F90461E4ABC
:10E1F000254E944610E041460133DA018A1A2B601D
:10E20000116822480818B04204D8D26F91424FD00A
:10E2100062454DD0A3424ED0BB42ECDD00230E4AF6
:10E22000EDE72B6043465B68002BABDD02236B60A0
:10E230003CE70F312DE72B60B34200D036E7F1E722
:10E24000E703000018FCFFFFC85B0200D842002073
:10E25000E85B02007C5C020080EF0300A831002034
:10E260000703000044480020FFFFFF7FA442002076
:10E27000000059404C5C02002C5C0200BC5C0200B7
:10E2800044400020FE0700007E145F1BFF3B83AA72
:10E2900088400020F4420020B4420020005D0200CB
:10E2A00060EA00002048002030360020060300000D
:10E2B000A34200D0FAE601236B60094B98461B6825
:10E2C0002B6071E743462A68DB689A4200D0EDE68E
:10E2D0002DE74B462B6025E54B462B60D3E4C0462B
:10E2E000B4420020C0B282B0012801D1014B1870A5
:10E2F00002B070472D320020F0B59F488BB0A025AA
:10E30000A12605F04FFD0423ED05F600AB51E123F6
:10E310000322DB0003ACEA502200984B83CB83C27C
:10E3200083CB83C21B6821001360002002F0F6FB40
:10E33000002805D080239B00AB51914805F032FDA9
:10E340009049002002F0A4FC8F2302AD2B70002323
:10E350002370637002330093012223002900002000
:10E3600002F0A8FCFEF706FE0028FBD16378332BF1
:10E3700000D1ECE0844805F015FD8021A123A02206
:10E380008900DB00D205D15020232B70193B6B7024
:10E3900000232370637002330093022223002900BC
:10E3A000002002F087FCFEF7E5FD0028FBD1A0234A
:10E3B0002B709E3B20706070012200932900230087
:10E3C00002F078FCFEF7D6FD0028FBD10F2263781F
:10E3D0002070134011322A70702213436B70022395
:10E3E0006070022200932900230002F063FCFEF714
:10E3F000C1FD0028FBD123232B7065336B70863B56
:10E4000020706070022200932900230002F052FC69
:10E41000FEF7B0FD0028FBD122232B70123B6B705E
:10E420000E3B20706070022200932900230002F04E
:10E4300041FCFEF79FFD0028FBD11F232B706133A9
:10E440006B707E3B207060700222009329002300D5
:10E4500002F030FCFEF78EFD0028FBD122232B704A
:10E460005E336B707E3B2070607002220093290047
:10E47000230002F01FFCFEF77DFD0028FBD12423C2
:10E480002B701C3B6B70063B207060700222009367
:10E490002900230002F00EFCFEF76CFD0028FBD1E2
:10E4A00038232B70233B6B70133B2070607002226B
:10E4B00000932900230002F0FDFBFEF75BFD00281E
:10E4C000FBD13A232B70263B6B70123B207060709F
:10E4D000022200932900230002F0ECFBFEF74AFD24
:10E4E0000028FBD13B232B70313B6B70083B207025
:10E4F0006070022200932900230002F0DBFBFEF78C
:10E5000039FD0028FBD13C232B70283B6B70123B5C
:10E5100020706070022200932900230002F0CAFBE1
:10E52000FEF728FD0028FBD13D232B70C2336B7012
:10E53000FD3B20706070022200932900230002F04E
:10E54000B9FBFEF717FD0028FBD10BB0F0BD0F485B
:10E5500005F028FCA0268027A123FA20F6057F00DD
:10E56000DB00F750400001F047FBFA20084B400069
:10E57000F75001F041FB07E7085E0200D05D0200A2
:10E5800054530200E5E20100305E0200205E02000A
:10E590000C050000212330B585B002AC23700023A8
:10E5A00003AD63702B706B700233009302222B005B
:10E5B0002100002002F07EFBFEF7DCFC0028FBD1EE
:10E5C000222323701E3363703E3B28706870022242
:10E5D000009321002B0002F06DFBFEF7CBFC00281E
:10E5E000FBD123232370213B6070287068700222C6
:10E5F000009321002B0002F05DFBFEF7BBFC00281E
:10E60000FBD124232370223B6070287068700222A3
:10E61000009321002B0002F04DFBFEF7ABFC00281D
:10E62000FBD132232370223B63700E3B287068704D
:10E630000222009321002B0002F03CFBFEF79AFC23
:10E640000028FBD1022320706070287068700222BD
:10E65000009321002B0002F02DFBFEF78BFC00281D
:10E66000FBD130232370703363709E3B2870687039
:10E670000222009321002B0002F01CFBFEF77AFC23
:10E680000028FBD1202323703C3363705A3B287051
:10E6900068700222009321002B0002F00BFBFEF7B2
:10E6A00069FC0028FBD13023237052336370803B18
:10E6B000287068700222009321002B0002F0FAFA01
:10E6C000FEF758FC0028FBD12023237039336370F8
:10E6D000573B287068700222009321002B0002F043
:10E6E000E9FAFEF747FC0028FBD105B030BDC04673
:10E6F000F0B557464E4645462323E0B49A46673365
:10E7000084B09946883B2E4F02AD03AE984612E086
:10E71000A024A12280230C202A49E405D2009B04D6
:10E72000A3506050A221C9006158194219D180221A
:10E73000254B5200E2503B78002BE9D15246337012
:10E740002A7073704A4643466A7029000093022279
:10E750003300002002F0AEFAFEF70CFC0028FBD1DB
:10E76000D6E780235B009946A350E930DB18A3501D
:10E77000FF30984601F040FA4A46134BFA20E25027
:10E7800042464000E25001F037FA23232B706533F4
:10E790006B700023337073700233009302223300D6
:10E7A0002900002002F086FAFEF7E4FB0028FBD1E6
:10E7B00001233B7004B01CBC90469946A246F0BDB4
:10E7C0002C320020640700000C050000F8B5444618
:10E7D0005F4656464D466348F0B405F0E3FA8023A1
:10E7E000A026A12780249B00FA209846F605640005
:10E7F000FF00F4514000F35101F0FEF94346FA20C6
:10E80000594D40007451735101F0F6F9574805F025
:10E81000C9FAF451564805F0C5FAFA20400001F053
:10E82000EBF9FA207451400001F0E6F9514805F087
:10E83000B9FAF451FEF72AFC002800D18EE04E48C8
:10E8400005F0B0FAFA20400001F0D6F9FA20745130
:10E85000400001F0D1F9FFF74FFDFFF79BFEFFF7F6
:10E8600047FF0023454C2022236200217D332000F6
:10E870006362FDF79DFC424BB0469B46414B424DC7
:10E880009A46424B9946A1228023414648460C268F
:10E89000D2009B048B500E50A2214046C900415823
:10E8A00019424ED080235B00835040260027402031
:10E8B000A847636A013EC01A05F058FA3F18002EB7
:10E8C000F5D1B909FF2900D9FF21236A5A1CD317B2
:10E8D000D80E1F2312181A40131A5846E154236207
:10E8E00005F060FA20002300002120301A7801335F
:10E8F00089189842FAD14E113100504605F052FA6B
:10E90000FF2131400A31080004F0FAFF204A214B70
:10E9100004F046FD236A0600E05C0F0004F0F0FFFF
:10E9200002000B003000390003F0FCFC8022920052
:10E9300000280BD141460C4BCA500A2001F05CF96B
:10E94000A1E78022084B5200C250AEE7A123414606
:10E95000DB00CA50642001F04FF9EEE70E4805F0E5
:10E9600021FAFEE7445E02000C0500005C5E020036
:10E97000785E02008C5E0200A85E0200604000200B
:10E98000EC5D0200FC5D02006528002064070000C9
:10E99000333333333333F33FB45E0200F0B54746CD
:10E9A00080B4254CE4B0A368E8466F460025002BF0
:10E9B0001ADD2B1D5B00E3189B883B802B0068331E
:10E9C0005B00E318988863199D33FF331E001978A4
:10E9D00000B249B203F0A4FB33780135FB70A368A1
:10E9E000B8700437AB42E4DC144B0422A168404603
:10E9F00005F029FAA26846460023002A17DD1A1DF1
:10EA000031885200A2189180032002211A0030564A
:10EA10007156683241435200A2189180E2189D322B
:10EA2000FF321070A268013304369A42E7DC64B00A
:10EA300004BC9046F0BDC0468840002041EA010079
:10EA40000222022310B58256CB569A4206DC03D02E
:10EA500001209A4205DA10BD0020FCE70120404267
:10EA6000F9E7002000220021FDF7BCFB0120404215
:10EA7000F1E7C046F0B54F4646460723C0B4C3563B
:10EA800089B09946783366DB037A0025DE080023D7
:10EA900009309846002407E0FF2A12D0FB18DBB2A9
:10EAA000002C01D0002D5BD19E4210D95A1CC75CAE
:10EAB000D3B2C25C110008390129EDD85C1C0419DD
:10EAC000ECE77A1E5D1CD2B245199046E6E7434654
:10EAD0000D2B62D04346192B3DD11922290001A8E4
:10EAE00005F057F96B469B884C2B69D0FF25414CAC
:10EAF000404B9C422FD0404B9B789D422BD13F49AD
:10EB00008B68632B27DC8B68002B0FDD8B89002241
:10EB10009C4245D0080005E0131D5B00C3189B888C
:10EB20009C423DD08B6801329342F5DC4A4616B2D6
:10EB300001228B6804335B00CB189C808B686833A0
:10EB40005B00CB189E808B68CB189D33FF331A7007
:10EB50008B6801338B6009B00CBC90469946F0BDC0
:10EB600043460D2BB6D1264F380005F0B8FA3900D0
:10EB70000200200005F0FEF80028ECD101AFA91C2E
:10EB80000B22380005F005F97C883D794B462200C0
:10EB900029001C4805F006F9AAE7002CDBD0E2E7C3
:10EBA000130068335B00CB1898888A18484406B273
:10EBB0009D329E80FF32137801335BB21370CAE737
:10EBC0006A46114BD2889A4200D08FE76B466A465C
:10EBD0009C7E117E2302D47E0C48E4180B02517EE9
:10EBE000A4B2C91889B24B46220005F0DBF86B4687
:10EBF0005D7E7DE7FFFF00003C4000208840002054
:10EC0000FC4F0200DC5E0200021500000C5F0200F7
:10EC1000022210B5034B00211A700020024A00F0B6
:10EC2000C3F910BD24480020B9ED0100F0B55F46DE
:10EC300056464D464446F0B4554F83B0B9685548E2
:10EC400005F0B0F8BB681D2B00DD96E000220192B4
:10EC50009146514A3B689246504A93465901CB1817
:10EC60007A689B0053445A60BA681A72FDF732FE04
:10EC700004F088FE00224A4B04F092FB04F00AFEE6
:10EC80003D6864386C016419A4005444FF2800DD19
:10EC9000FF2060722900434805F084F84A46BB68AB
:10ECA0009B1A98461D2B51DD1D23984600264A4687
:10ECB0003B6895195C01E4182B002A1D68337D1907
:10ECC000A41952005B009D35FB18FF35BA180234B9
:10ECD0009288A400988829785444A28049B200B24E
:10ECE00003F01EFA2B78A0715BB242B2E371A188E7
:10ECF0005846013605F056F8B045D8D1019BC144BD
:10ED0000002B29D1BB683A6899452EDB53019B182B
:10ED10009B005344596880331960019B0133019370
:10ED20000023082A00DC531CBA683B60914595DB40
:10ED300001991D4805F036F8FEF7BAFB012003B033
:10ED40003CBC90469946A246AB46F0BD002BADDCDC
:10ED5000019BC144002BD5D03A68144953019B183C
:10ED60009B00534480331960D7E753019B189B00E5
:10ED700053440F4980331960CFE7FFF70FFEB9689E
:10ED80000C481D3905F00EF81D23BB605EE7C04638
:10ED9000884000203C5F0200F4420020A45F020093
:10EDA00000005940985F0200CC5F0200FFFFFF3F68
:10EDB000FFFFFF7F6C5F020010B5054804F0F2FF13
:10EDC000FFF734FF0022034B1A70FEF771FB10BDF2
:10EDD0000060020024480020F0B5FA244746A40051
:10EDE000614380B406000800144990461F0003F0F8
:10EDF0000DF9134D114928813000604303F006F9E5
:10EE0000434601227C43AB810E4B68811C600E4B54
:10EE1000610C1A70FA220023E00352008018594155
:10EE2000FA220023920003F0A5FA084B0100002209
:10EE3000186800F095FD04BC9046F0BD710200001A
:10EE400048480020384800205C4000203032002034
:10EE5000002210B5044B1A70044B186800F008FE2D
:10EE6000FEF726FB10BDC0465C400020303200207B
:10EE700010B5040084B0FEF787F8E001092201A96B
:10EE8000FEF7ACF8FEF776F80028FBD1029804B044
:10EE900010BDC04610B5040082B0E401FEF774F85E
:10EEA000200008227C306946FEF798F8FEF762F8E9
:10EEB0000028FBD1019802B010BDC04670B5050016
:10EEC0000C00FEF761F8E00184222900FEF786F8C5
:10EED000FEF750F80028FBD170BDC046BFF34F8F3E
:10EEE000024A034BDA60BFF34F8FFEE70400FA05D6
:10EEF00000ED00E070B5040001F0EEF80A2C0AD035
:10EF00000D2C08D0114A13681F2B03DC1049CC5478
:10EF10000133136070BD0D4C2368002BFAD00D4EE9
:10EF20000B4D3100280005F0D0F800280BD0290047
:10EF3000094804F037FF212200212800FDF738F9A5
:10EF400000232360E6E7736A9847F4E7583200200D
:10EF500034320020DC2800205060020030B5002A46
:10EF600019D01388002914D0FF25040041186D0121
:10EF700020785BBA9BB24340DAB2120953401803BF
:10EF8000434018B243012B40434001349BB28C42B2
:10EF9000EED1180030BD014BE4E7C046FFFF000092
:10EFA00036DF704737DF7047F0B557464E46454667
:10EFB000E0B4514D06002B8882B00C0017000920E8
:10EFC0008B4205D202B01CBC90469946A246F0BDC9
:10EFD00000236A46D3710422484B90465B68DB05E8
:10EFE000DB0D49D16B46D81DFFF7DAFF022859D057
:10EFF000002859D1424B434A19784348CBB20021EB
:10F00000994613780088DBB28C46834202D20133E2
:10F01000DBB29C46E1451CD0137800219946137859
:10F02000DBB2834201D20133D9B243461170012BC6
:10F0300014D14B46DB009846344B9A461B68434438
:10F040001F60002E01D0002C38D1002200209A80B1
:10F05000B8E74346012B4DD02D4B994662B66B461F
:10F06000D879FFF79FFF022302009A4321D1284B52
:10F0700004209945A6D0DCE7103B5AB2002A2EDBCB
:10F080009208C03223499200525803210B40DB0002
:10F09000DA4093090B40DAB29046012BA2D101234A
:10F0A0009846A7E772B6A5E700220021FDF79AF877
:10F0B000A0E700220021FDF795F8D8E74B46288805
:10F0C000220043431800144B31001B68181804F049
:10F0D00060FE53461B68002043449C8072E70F2269
:10F0E0000E49DBB28C461A40083A920892006244FC
:10F0F0005268CAE7042065E76432002000ED00E0B2
:10F100006632002067320020683200205C32002026
:10F11000FFFF000000E100E06032002018ED00E099
:10F1200080218023184A8902D1508022D221174B96
:10F13000520289005A5040395A5001222F205A60F9
:10F140000138C046C046C046C046C046C046C0465C
:10F15000C046C046C046C046C046F1D19A600023B2
:10F160000B4A2F2013600138C046C046C046C04637
:10F17000C046C046C046C046C046C046C046C0465F
:10F18000F1D1044A1370704700E100E00010014023
:10F190006C32002094320020A021F0B500224746B6
:10F1A0002C4B490080B45A5004315A5004315A5003
:10F1B00004315A504C395A5004315A50264A176873
:10F1C0007A1C38D0254A00259B58254A254E1468BC
:10F1D0001C1B254B2402240A984601E07B1C1BD0F3
:10F1E0003268FB009446DB199B0063445A68A242D4
:10F1F00012D8A41AAD181F6A9A69D96943461B68C8
:10F20000002B1BD0100098470028E7D000220021D7
:10F21000FCF7E8FF7B1CE3D1144B15491A780B78F7
:10F220009A420ED0134A9B009D5080218023124A9F
:10F2300049035B00D15004BC9046F0BD08009047E4
:10F24000CCE70132D3B2022B01D00B70EAE70023E6
:10F250000B70E7E700100140843200200405000035
:10F260006C32002074320020703200208032002086
:10F27000813200208C32002000E100E0F0B55F46D2
:10F2800056464D464446F0B4D84BD94A1B68D94936
:10F290008FB0089309781378994200D1BCE101330B
:10F2A000DBB2022B00D1BBE11370D34A9B009B5809
:10F2B000089A9C46624406931302CC4A1B0A1360C8
:10F2C00001230793CD4B00251B681A000D93CC4BEF
:10F2D00014001B7819000393CA4B02911B68049316
:10F2E000C94B1E68C14B1B680C93C84B1B780A9313
:10F2F0001300002209920B920192029A013AD2B2B3
:10F300000292FF2A3DD00499D200894691444A4690
:10F3100049462000497812784F46009604008A42F8
:10F3200028D07E685400B446A418BE780132E400A8
:10F33000D2B26444964200D118E12678022E00D160
:10F34000E2E0032E00D0DCE0441C00D1D9E0030051
:10F35000009ED900CB189B00F3181D751B6A591C21
:10F36000F7D101209A460096797801905046040022
:10F370008A42D6D1029A009E013AD2B20292FF2A64
:10F38000C1D1019A0594002A00D04BE10B9B002BC0
:10F3900000D00EE2099B002B05D06A4628215218A6
:10F3A0009A4B12781A70079B002B00D0C0E1059A87
:10F3B0000D9B05999B1A5A1E9341DBB206930123BC
:10F3C0005B429C46894B1B689B468C4B1B68009399
:10F3D0008E4B1B780293002398460193039B013BBD
:10F3E000DBB20393FF2B00D138E1049ADB00924695
:10F3F0009A4463460F00013341D06346DC00644405
:10F40000A4003419226AE1469446A368E1685A468A
:10F410007F489A1A1202120A824268D85118616013
:10F420004346A360E3600123237501235B4223620B
:10F430007B1C00D108E1FB00DB199B00F31860681E
:10F4400059683D00884209D8F2E0D3009B189B0020
:10F45000F3185968814200D3E7E015001A6A401A90
:10F46000531CF2D1EB005D194B46AD00751960607D
:10F4700022622B623B001F0063460133BDD153461D
:10F4800052461B78527839009A42A7D051464968B3
:10F490005A0089465146D2180133DBB20B70897885
:10F4A000D2004A44994200D1D4E011783B000129AE
:10F4B000E1D153689946DC004C44A4003419207D06
:10F4C0003B000028D7D19368A360D168E16015693B
:10F4D00025615269E261029A002A98D000235A46B7
:10F4E000A0609A1A4A481202120A824296D95A46D3
:10F4F000D31A1B021B0A8B4200D3A2E0C91A616017
:10F500008EE78246504632E764688246E600B0469F
:10F51000A446C4446646B600B446009EB146CC44F8
:10F520006646367DB146002E00D11FE7411C18D03B
:10F53000844256D093461A00009E23000590040092
:10F54000924602E0934213D01400E10009198900A9
:10F5500071180A6A501CF5D1059853465A468246DE
:10F56000009661460D757978504600E70022E4E682
:10F570005A460096B3465646A24605981C003300EC
:10F58000544514D082464444A4005C4460688046DC
:10F59000206A0862411CE4D0C10009180098890063
:10F5A0008146494448689A4640444860D9E7C300C8
:10F5B0001B1800980C0080469B0043441B6A581C93
:10F5C00003D048469A460190E0E7012611489A4642
:10F5D0008660484609900A900B90019000200C909C
:10F5E000D4E7614664466346E8E7C0466C320020D3
:10F5F00080320020813200208C32002084320020B2
:10F60000783200207C3200207432002088320020C2
:10F61000FEFF7F000010014000230693079351E690
:10F62000002341E66A4A1360B0E6091A596019E7F7
:10F63000091A596001224B462762009301921F006C
:10F640001AE743466360EBE64B46012200930192C2
:10F650001F0011E753464146197026E7019B002B16
:10F6600000D0ADE0059B994200D15DE04B1C00D17C
:10F670009CE0584BCA001B68511889005B185B68F6
:10F6800055489846554B564DC158564B2E781B68D9
:10F69000CC1A2402240A0334002E1FD18026D1273D
:10F6A0007602BF00C651403FC651C02280274E4E51
:10F6B000BF025200B7503760012606602F20013884
:10F6C000C046C046C046C046C046C046C046C0460A
:10F6D000C046C046C046C046F1D12E704246A24246
:10F6E00000D22200A820D2181202130A3A4AC000FF
:10F6F00013503A485B1A12581B02521A1202120A8D
:10F7000003321B0A9A4205D980218023364A890296
:10F710005B00D1500023354A13700FB03CBC9046BB
:10F720009946A246AB46F0BD069B002BF2D09DE762
:10F73000274B059A186801235B429C46002300244E
:10F74000002598461DE0D3009B189B00F3185968CC
:10F75000069FB94220D8781A6D1841465960414633
:10F760001C6906901975186A002C08D00899DC608D
:10F7700049190902090A9960614694461962020012
:10F78000079C531CDFD1002C17D101235B4205934A
:10F7900002330693059915E6002C15D106980592BB
:10F7A000091A59600123110006930BE6FFF7B8FC14
:10F7B000B0E70C4B0C9A1A60ECE5054B1860E4E7D7
:10F7C000034B009A1A604DE7014C2060E6E7C04603
:10F7D0008432002074320020001001400405000033
:10F7E000943200206C32002000E100E088320020DA
:10F7F000F8B51E0005000F0014000720B30700D065
:10F80000F8BD002EFCD0FFF78BFC2E4B069A1A6039
:10F810002D4B1F702D4B1E60002F51D03300002246
:10F82000F900C819800030181A701A752433834201
:10F83000FAD1CB199B000321F3181800244A183081
:10F84000117061000919234AC900586040181360FB
:10F850004118002259610121D86080209C709C725F
:10F860009C74C5241A705A701A725A721A745A7497
:10F87000194B49421960194B40031A70184BA400E8
:10F880001A70184B8132FF3298501A590131FF31EA
:10F890008A433F390A431A51A1221860C4201249F1
:10F8A000D2008D5080001C58104A2240C0242402EF
:10F8B00022431A500E4B0020CA580E4B1A609FE785
:10F8C0000021B6E77032002082320020743200201E
:10F8D000783200207C3200208432002080320020E8
:10F8E0008132002000E100E000100140FF00FFFF36
:10F8F000040500006C320020F0B5174B94461E68DA
:10F90000002E1DD0002A19D0002817D0134B1F78C5
:10F91000002F11D03378002B14D03400002324346E
:10F9200007E0260024342500243D2D781A00002D00
:10F9300009D00133BB42F4DB0420F0BD0720FCE713
:10F940000820FAE700220123337063467170B36127
:10F9500002600020F1E7C0467432002082320020AD
:10F96000F0B53B4B1C68002C41D03A4B1D78072367
:10F97000854201D81800F0BD0429FBD9C3001B182B
:10F980009B00E41825780823012DF3D16378012B1F
:10F9900047D00025304B10245B68DB05DB0D28D1F8
:10F9A0002E4B1E6836197378B4785F1CA7423CD082
:10F9B0003478BC4237D05C00E4187368E4009C469D
:10F9C00064440423002CD5D0033B23706060244B97
:10F9D0002448C358E160A360802180236261224AE9
:10F9E0005B00490325617770D1500023C2E70823EB
:10F9F000C0E7103B5CB2002C19DBA4081A4EC034DF
:10FA0000A400A45903263340DB00DC40A3093340A3
:10FA1000DBB20024012BC3D00834032BC0D0083440
:10FA2000BEE70D00B6E70423A4E70027C0E70F24D4
:10FA30000E4EDBB2B4461C40083CA408A40064444B
:10FA4000666803242340A340DE40B3092340DFE778
:10FA5000743200208232002000ED00E07C32002071
:10FA6000040500000010014000E100E018ED00E096
:10FA700010B5304B1A68002A32D02F4B1978072363
:10FA8000814201D8180010BDC3001B189B009A5C6E
:10FA90000823012AF6D1294B0F325B68DB05DB0D09
:10FAA00020D1274B196889184B788A785C1C9442BE
:10FAB00032D00A78A2422DD05A00D2184B68D20018
:10FAC0009C4662440423002ADCD0023B1370506041
:10FAD0004C7080211B4AFE334903D1500023D1E7EB
:10FAE0000823CFE7103B5AB2002A17DB9208C03236
:10FAF00014499200525803210B40DB00DA4093096D
:10FB00000B40DBB20022012BCBD00832032BC8D034
:10FB10000832C6E70423B5E70024CAE70F220A49E2
:10FB2000DBB28C461A40083A92089200624452684E
:10FB3000E1E7C046743200208232002000ED00E090
:10FB40007C32002000E100E018ED00E0024A034BA7
:10FB5000D3580360002070470010014004050000E6
:10FB6000401A0002000A10600020704770B51600AD
:10FB70000C008D18002A05DD2078013400F0ACFA65
:10FB8000AC42F9D1300070BD10B50C00200000F07F
:10FB90009BFA0528FAD0012010BDC0460321F0B51C
:10FBA0001C240378114E194043780D009B001C4023
:10FBB00043680F480F4A8159C0270A408251A0224A
:10FBC0000021D2008150FF218259BF021F4009024B
:10FBD00011403A000A432A4311005A0160231A4097
:10FBE0000B00134323438351F0BDC04604050000BE
:10FBF00000700040FF00FFFF82B00190019B002BCE
:10FC000014D0019B0A48013B01930138C046C0460D
:10FC1000C046C046C046C046C046C046C046C046B4
:10FC2000C046C046F1D1019B002BEAD102B070471B
:10FC3000E703000030B585B000F0BEFC002818D105
:10FC4000274C2378DBB2002B05D0032B01D10223F4
:10FC5000237005B030BDA0220421224BD200995060
:10FC6000012221481A608568C1688D420BD122703B
:10FC7000EFE71B4A1378DBB2012B1DD0022BE8D132
:10FC800003231370E5E72178022900D09A606B46C0
:10FC9000D91D00F089FA002817D1C2218022114B0A
:10FCA00089005A506946C87910495850022121707C
:10FCB000C12189005A50CCE700211170094AD36054
:10FCC0005360A023DB00D150C3E70123054A02A8FB
:10FCD000D360237002330370054B1B689847B8E765
:10FCE000AC320020002000409C3200201C050000A7
:10FCF00098320020842210B5414B5200995884B0AC
:10FD000000292DD18E223E4B52009958002914D142
:10FD100092223B4B5200995800290CD00021995057
:10FD20009021C9005A5802A85A5002230370354B3B
:10FD300042601B68984704B010BD0021324C9950B6
:10FD40002278D2B2002AE3D0022A21D9032ADFD1B5
:10FD5000023A2170DA605A60A022D2009950D7E7A7
:10FD600000219950A322D2009958284CC9B22000F2
:10FD700000F006FA00281AD1A268E3689B1A012B4A
:10FD8000C0D1204A02AB1870126818009047B9E73A
:10FD90001F488168C268914212D10122DA60227044
:10FDA000032302A80370174B1B689847B0E7012292
:10FDB00002AB1A70134A0390126818009047A1E72B
:10FDC0002278022A01D001229A606B46D91D00F0E8
:10FDD000EBF900280ED1C2218022094B89005A502C
:10FDE0006946C8790B49585002212170C121890008
:10FDF0005A508DE70123024AD3602370D0E7C046F2
:10FE00000020004098320020AC320020B0320020A8
:10FE10009C3200201C050000F0B55F4656464D465A
:10FE20004446F0B489B001930023994C994D0600E3
:10FE30000F0023702A600720002906D08A88964880
:10FE4000096800F089F9002806D009B03CBC90464A
:10FE50009946A246AB46F0BD904BBA89B9681800E6
:10FE6000984600F079F9021EEFD1A02103207378A3
:10FE7000C905C133FF339B0058503378C133FF337A
:10FE80009B005A507178864B864A99503178864A41
:10FE90009950B168854A99507279002A48D00E214C
:10FEA000834A99503379022B5FD0012B43D0A02293
:10FEB00004217B4BD200995000220531FF315A506A
:10FEC0007B4814315A50195801329143195001217D
:10FED000643849421950083019509A601A602270EB
:10FEE000129B1B88002B05D1724A1378591C117084
:10FEF000129A13800121C222694B49429200995003
:10FF0000A121043A89009950C0230420C024FF2174
:10FF1000694A5B00D050019BA40015599F05674BAF
:10FF200009040F402B401F431751106000208CE73D
:10FF30005F495A50B6E7A0210420594AC9005050E1
:10FF400000210530FF30115014301150584811581D
:10FF500019431150A221F078C9005050B0780839E7
:10FF60005050936013602370BAE700F0A5F90028A1
:10FF700004D100F06BF9002800D066E704AB9A4684
:10FF800003230322002150469B46FCF711F901236D
:10FF9000994653464A465A70B078514600F094F953
:10FFA000031E00D051E73E4A01219246A22250464C
:10FFB0004942D2008150B178083A81503C494258B8
:10FFC00048460243504642505A4605A90A704B70B3
:10FFD0008B70CB70F0783A4A00F0E2F9071E00D03F
:10FFE00033E7F078012100F099FAF07800F0E4FAB4
:10FFF0002378DBB2002807D0012B0DD0022B00D0D4
:020000022000DC
:100000006EE75B4623706BE7002B0DD0032B00D00F
:1000100066E70223237063E752462770D36053607C
:10002000A023DB00D7505BE7A02304225146DB006E
:10003000CA504A4643460A609A68DB689A4202D12F
:100040004B4623704CE72378022B01D04A468A6046
:1000500002ABDE1D3100404600F0A6F800280DD1AD
:10006000C22180220E4B89005A50307815495850D1
:1000700002212170C12189005A5031E70123084A29
:1000800006A8D3602370023303702B68984727E7D4
:10009000AC32002098320020B03200209C32002088
:1000A000002000400C05000014050000240500009D
:1000B0006C0500000429002000E100E0FFFF00FFC4
:1000C00035FC01001C05000010B50100014800F0DE
:1000D0006BF810BDB032002070B51A4D010084B02D
:1000E000280000F04DF8184C06002378DBB2012BF5
:1000F00002D0300004B070BD2278022A01D0134A29
:1001000093606B462800D91D00F04EF800280ED1F0
:10011000C22180220D4B89005A506946C8790C498A
:10012000585002212170C12189005A50E1E7012372
:10013000064A02A8D360237002330370054B1B6884
:100140009847D6E79C320020AC32002000200040C7
:100150001C0500009832002010B500290DD009239D
:10016000002A01D1180010BD541E2240FAD182602D
:1001700001608480C2600023F4E70E23F2E7C046EA
:10018000030010B59C888068DA68121A0420944233
:1001900000D210BDDA68002014401A681155DA68E0
:1001A0000132DA60F5E7C04610B58468C268030022
:1001B0000520944200D110BD98689A8802401868C2
:1001C000825C00200A709A6801329A60F3E7C046A8
:1001D000F0B500281EDBFF261A4B37009C46032390
:1001E0008208C025C0B20340DB0089019F40314036
:1001F000994092006244AD005459BC43214351518F
:100200001F23C02118401E3B83400E4A4900535013
:100210001360F0BDFF250C4A2E00944603220F23E5
:10022000C0B20240D200890196402940914003406B
:10023000083B9B089B006344DC69B4432143D961BC
:10024000DEE7C04600E100E000ED00E010B5184C2C
:1002500008202378002B00D010BD4822FF21013B4D
:10026000A3540132A1540132A3540132A354A36216
:100270000132E36223636363A363E3632364636420
:10028000FE390238A3546360A360E36023616361B5
:10029000A361E36123626362FFF79AFF8021C123B8
:1002A000044A9B000906D150012300202370D3E7A4
:1002B000C032002000600040024B1878431E984175
:1002C000C0B27047C0320020F0B50025304A082483
:1002D000131828335D57013501D02000F0BD8C780C
:1002E000002C36D0536801334CD0936801334BD087
:1002F000D36801334AD0136904240133EDD10323B9
:10030000244DA227AC461418283423709B00FF000C
:10031000D21800246344DE591F4D54603540C02676
:100320004C780A78DD51DD59B6021204AC463240F1
:10033000250580262C00760334402243F82415003E
:100340006401020214402A00224364462243DA5127
:1003500001E0FE221A700300A0220324C133FF3300
:100360009B00D2059C504B78012B05D00123834084
:100370000A4900245350B0E7A1218340C9005350DB
:100380000024AAE70023BBE70123B9E70223B7E76C
:10039000C032002000600040FFE0ECFF0C050000D0
:1003A000F0B5474680B45A4C0825231828331E78E8
:1003B0007F2E03D8280004BC9046F0BDCD78AC4613
:1003C000002D44D06568013500D195E00423002656
:1003D0009846731C9D0067197F68013740D0B31C95
:1003E000984532D99D0067197F68013738D0F31CD2
:1003F00098452AD99D0067197F68013730D0331D91
:10040000984522D99D0067197F68013728D0731D50
:1004100098451AD99D0067197F68013720D0B31D10
:10042000984512D99D0067197F68013718D0F31DD0
:1004300098450AD99D0067197F68013710D00836A2
:10044000B04502D9636A013308D00425B2E7656973
:10045000013556D0092304269846BAE708232025FB
:1004600065196A60624627185EB228373E70002A16
:1004700002D1E318443318708B78002B14D1030099
:10048000A0254A78C133FF3392009B00ED055A51F5
:10049000CB78002B14D1A41944340B7822789B011B
:1004A00013432370002585E7A022D2059446E0255A
:1004B000022783006344ED005A59BA435A51E7E7D3
:1004C000144A0B789446A221B6006644C9007458B9
:1004D000114A000222407250F822520110400500D9
:1004E000C0221804030028009202745813401843D5
:1004F0002043705000255DE7002562601D700026D6
:10050000BAE7042562611D702E002B00B1E7C046DA
:10051000C032002000600040FFE0FCFF30B5234BFC
:100520001A182832127852B2032A18DD9B18443365
:100530001B789B09032B2DD0012B34D0C0218902BD
:10054000A023DB059C46E02380006044DB00C45808
:10055000174A2240C250C2580A43C25030BDD3B2DB
:10056000032BFBD81348A22584460124930063443F
:10057000ED00585920435851130060460025403380
:100580009B009BB21D500029E8D0C12394409B00E2
:10059000C450E3E7A223A022DB00D205D2580123F6
:1005A00083401A42CAD180218902C9E7C0320020A3
:1005B000FFFFFCFF00600040A222A0210300D20048
:1005C000C9058858D840012318407047F0B55746F0
:1005D0004E464546E0B4CE4A00241368012B00D1B4
:1005E000EAE0CC4B1A68012A00D1F3E0CA4B1A6842
:1005F000012A00D1FEE0C94B1A68012A00D109E1A5
:10060000C74B00251A68012A00D114E123070BD03B
:10061000E30700D519E1A30700D541E1630700D541
:1006200023E1230700D52FE1002C04DB1CBC9046FE
:100630009946A246F0BD4823BA4CE15C78330800E5
:100640009843231828331B785BB2032B17DD9B00DC
:10065000E3185E68002E12D0A0230127DB059C461C
:10066000E023874082006244DB00D35889099B0362
:100670009B0F3D4200D022E1032B00D15CE14923D6
:10068000E15C773308009843231828331B785BB26A
:10069000032B17DD9B00E3185E68002E12D0A02309
:1006A0000127DB059C46E023874082006244DB0093
:1006B000D35889099B039B0F3D4200D010E1032BC7
:1006C00000D167E14A23E15C7633080098432318A0
:1006D00028331B785BB2032B17DD9B00E3185E68A1
:1006E000002E12D0A0230127DB059C46E023874083
:1006F00082006244DB00D35889099B039B0F3D4273
:1007000000D0FDE0032B00D12FE14B23E15C7533DA
:1007100008009843231828331B785BB2032B17DD9E
:100720009B00E3185E68002E12D0A0230127DB0592
:100730009C46E023874082006244DB00D35889094D
:100740009B039B0F3D4200D0D2E0032B00D13AE146
:100750004C23E15C743308009843231828331B783A
:100760005BB2032B00DC61E79B00E4186668002E97
:1007700000D15BE7A0230124DB059C46E0238440F5
:1007800082006244DB00D35889099B039B0F2542FA
:1007900000D09CE0032B00D048E703290AD1802435
:1007A000A402E023DB00D7585F4D3D40D550D5581B
:1007B0002C43D450B04739E7C1215C4889004158E7
:1007C0000B4200D10DE7534B14601A680134012A23
:1007D00000D00BE7C12255499200895802220A42F3
:1007E00000D103E7002119604B4B14431A68012A1A
:1007F00000D000E7C1224D499200895804220A42E4
:1008000000D1F8E600211960444B14431A68012A0C
:1008100000D0F5E6C12245499200895808220A42D3
:1008200000D1EDE6002119603D4B14431A68002504
:10083000012A00D0EAE61D6080231B061C43A0228B
:10084000A223D205DB00D558E0E6A223374ADB001D
:10085000D058D158334B8903C0045B68890FC00E50
:100860009847A30700D4D9E61AE0A3232F4ADB0058
:10087000D058D1582B4B8903C004DB68890FC00EB8
:100880009847230700D4CFE6284A294BD058D1589F
:10089000244B8903C004890FC00E1B699847C3E627
:1008A000244B224AD058D1581E4B8903C0049B6860
:1008B000890FC00E9847630700D4B2E6D5E7022B34
:1008C00000D0DCE6032900D192E0B047D7E6022B46
:1008D00000D0ABE6032900D06CE7C024A40260E797
:1008E000022B00D0EEE6032900D189E0B047E9E60B
:1008F000022B00D02CE7032900D17DE0B04727E789
:10090000022B00D001E7032900D17DE0B047FCE6CF
:100910000061004004610040086100400C6100403B
:100920007C610040C0320020FFFFFCFF00600040FF
:100930001C050000140500000329C6D180239B027A
:100940009A46E023DB00D7589946B846304FBC465C
:10095000474663461F403B004F46D351D359574645
:100960001F434B46D750B04789E60329CED1802399
:100970009B029C46E023DB009946254FD3581F403D
:100980004B46D750D75863463B431F004B46D75082
:10099000B047BAE60329A9D180239B029A46E023F7
:1009A000DB00D7589946B846194FBC4647466346C0
:1009B0001F403B004F46D351D35957461F434B4628
:1009C000D750B0477EE6032998D180239B029C46EE
:1009D000E023DB0099460E4FD3581F404B46D750BB
:1009E000D75863463B431F004B46D750B047AFE64E
:1009F000C0239B029A46A4E7C0239B029C46E7E7DC
:100A0000C0239B029A46CAE7C0239B029C46B1E7DB
:100A1000FFFFFCFF2EDF70472FDF704732DF70478C
:100A200033DF704736DF704737DF7047842270B599
:100A3000374B5200995882B0012901D002B070BDE5
:100A4000C120800018584007F8D50020314C98503C
:100A5000638BE33A01339BB26383A35CDBB2002B6D
:100A600049D0A3232268DB00D0582169A38A9AB217
:100A7000E38A9BB2002907D09A4205D9E38A9BB248
:100A80005A1C92B2E282C854A068A389E28999B242
:100A9000238B92B29BB29A420BD226680025002883
:100AA00001D0914225D81C4AB550E289013292B258
:100AB000E281628B9342C1D801210800237FA022EA
:100AC0009840A123D205DB00D050E38902209AB2DE
:100AD0000023A360A3812361A3822433E054236A0B
:100AE000002BABD001AB19705A800198236A98474C
:100AF000A4E7855CD7E7A154628B216A92B20029F2
:100B0000AFD001A90B704A80236A01989847A8E7E3
:100B100000300040103300201C05000070B50D1E91
:100B200000D187E000286AD0002200210020FBF7D6
:100B300059FB002401210A002B69A1209A40A0231F
:100B40000326DB05C0001A502A69C132FF32920029
:100B5000D6502A699140195000216A68C132FF328B
:100B60009200D650EA68C132FF329200D650AA688D
:100B7000C132FF329200D1502B7C237723686A6800
:100B80001A502268E868344BD0502268A8680433B1
:100B9000D05022682868314BD050AB7E20685A0074
:100BA0006B7E9B0013432A7E13432D4A835084237C
:100BB00022685B00D150207940B2FFF72FFF002858
:100BC00044D12079297D40B2FFF72AFF002838D18F
:100BD00000232362C123042122689B00D150207985
:100BE00040B2FFF717FF002826D1A0230121226879
:100BF000DB00D150022224230020E25470BDCB7EC2
:100C0000184C5A1E9341184A242122600322227153
:100C10000022A060A081E0812061A082E082608348
:100C20002083227720626254013162542622DBB293
:100C3000A3547FE70E20E1E700220021FBF7D2FA60
:100C4000D3E700220021FBF7CDFAC1E70022002103
:100C5000FBF7C8FAB5E7C0460C0500002405000004
:100C600054050000103300200030004010B500286B
:100C700007D0002200210020FBF7B4FA24231B78C0
:100C8000FFDE2423014AD05CC0B210BD1033002027
:100C900010B50C00002802D1054B196210BD0022CE
:100CA00000210020FBF79EFA00231C62FFDEC046F5
:100CB00010330020F0B54F464646C0B483B0984686
:100CC0000AAB894616001F88002821D16B46D871CF
:100CD00026234D4CE35C002B30D06B46D81DFFF72C
:100CE000A1FE002830D12423E35C1125022B34D04F
:100CF0002623E35C002B16D06B46D879FFF794FED1
:100D0000002816D1280003B00CBC90469946F0BDCF
:100D1000002200210020FBF765FA6B460022DA7101
:100D200026231B78FFDE207940B2FFF773FE0028F0
:100D3000E8D000220021FBF755FAE3E7207940B222
:100D4000FFF76AFE0028CED000220021FBF74AFA06
:100D50002423E35C1125022BCAD1321CBE4200D2EF
:100D60003A1C93B20725002BC2D001212423E15461
:100D70000023002163832533E1544B462283A36083
:100D8000002B3FD000234246A681E3812261002A46
:100D900035D0A782E3820123227FA02193401B4A02
:100DA000C9058B50A168A289E38992B29BB22568DC
:100DB000002918D000209A4200D9C85C144BE85092
:100DC000E38901339BB2E381208B834209D22068FF
:100DD000934212D2CB5C0E4A8350E38901339BB21B
:100DE000E381002584E70A4BE950E38901339BB294
:100DF000E381228B9342F4D220680023EBE7434641
:100E0000A282C7E70026BDE7103300200C050000D2
:100E10001C050000074B1A780823002A01D118008E
:100E20007047002804D0044B5B7803600023F6E78A
:100E30000E23F4E7943500203833002072DF70472A
:100E400079DF70477DDF704765DF7047F0B55F463B
:100E5000564644464D46F0B485B09A460E9B060071
:100E600098461B788B46019303881700002B40D0CF
:100E70000023994602AB0024DD1C03E033880134D3
:100E8000A3422CDD7368A1009C460422614403A8A0
:100E900002F07FFF0022290003A8FFF7D5FF0028FA
:100EA00028D12B78BB42E9D14B46002B29D04346B1
:100EB0001A78D3191F2B34DC5244290003A8FFF7FA
:100EC000C3FF002816D143461A782B780134D31873
:100ED00042461370012399463388A342D2DC4B4625
:100EE000002B06D0434651461B78019A013B9B1AC2
:100EF0008B54002005B03CBC90469946A246AB46B8
:100F0000F0BD43461B78DA191D2A0ADC41469A1CBB
:100F10000A70524659460133DBB2D15443461A781F
:100F2000CAE70C20E6E7C046F0B55F464D464446AA
:100F300056460023F0B497B005AD02AA04000F0096
:100F40002B705373002800D1C6E0C278530700D439
:100F5000BAE00378002B00D071E28378002B00D038
:100F6000C3E2002306AE0221F154991CC9B288469F
:100F70000121581CC0B2315441460333DBB22B70FF
:100F800072546268002A10D00C201C2B00DD9CE0FB
:100F90000021515602220A20F2545A1CD2B2B054F7
:100FA000DA1C0233DBB22A70F1542389002B00D003
:100FB0003BE1238A002B00D011E2238B002B00D0D1
:100FC00025E2226A002A49D02B780C20991D8A46F6
:100FD0001F2900D979E011888B46052974D9C149A8
:100FE00068468C46DC446146818181898C46BE49D5
:100FF00088468C4568D951888C46052964D9B949F9
:1010000061448181818941455ED9B8498B4503D0CE
:101010008C4501D0E34557D80520F054981CC1B247
:10102000684629708946591C0173017B04338C463C
:10103000122188466146404670541188DBB28C46C6
:1010400049467018614601706146090A417052882C
:10105000F3181A70120A5A7053462B70636A984636
:10106000002B2AD01B792A789C460233911CDBB2D4
:10107000CB180C201F2B28DC63460333B354531CBE
:10108000DBB2F330F0544346C9B229701B887118A3
:101090000B701B0A4B7043460432D0B228709A88FA
:1010A000002A0AD0996800290ED0301802F071FE8B
:1010B00043469A882B78D3182B702C23E15C0029A7
:1010C00000D0CAE0B14609E0072017B03CBC90460A
:1010D0009946A246AB46F0BD00239946002F00D1A9
:1010E000FFE1FB78002BEFD102AA53733B78002B72
:1010F00000D0FDE1BB78002B00D0AFE27A68002A77
:1011000000D058E13B89002B00D0F1E03B8A002B56
:1011100000D00EE13B8B002B00D02BE13A6A002A75
:1011200041D002AB5B7B0C20991D1F29CDD81088C4
:101130000528C9D96B4C6C4E0419A4B2B046B44210
:10114000C2D95488A246052CBED9664E6C46B44618
:10115000D4446646A681A6894645B5D9634EB042B9
:1011600003D0B24501D05045AED80EA88046052028
:101170004446E054981CC0B202AC60738446122608
:1011800040465C1CE4B20655604614884044047036
:10119000240A447050881A1DD2B24244107002AB27
:1011A000000A507059737C6A002C2FD002AB26794C
:1011B0005A7BB31C911CDBB2CB180C201F2B00DD1B
:1011C00083E70EAB984603369E544646C9B202AB3F
:1011D0005973531CDBB2F330F054238841440B7035
:1011E00004321B0A4B70D0B202AB5873A288002A9B
:1011F0000CD0A168002900D166E7404402F0C9FD87
:1012000002ABA2885B7BD31802AA53732C23F95C30
:10121000002900D0DAE10EAA904602AB5B7B424681
:1012200029784846FFF70AFE4FE708239846A0446E
:1012300000953300022202214046FFF707FE0028F6
:1012400000D042E700953300102206214046FFF708
:10125000FDFD002800D038E7ABE6A36A002B00D1E3
:1012600032E70022914616329246163228788C4692
:10127000934600E0A36A4A46984652004A449200C8
:101280009044434651469B88421C0333D2B23354A8
:10129000B1544246831CDBB22B701288F3181A70CB
:1012A000120A5A7043460430C0B228709A88002A45
:1012B0000FD09968002900D106E7301802F069FDC7
:1012C000434698882B78C0185B46E35CC0B29C46C6
:1012D00028704B460133DBB299466345CAD3B14609
:1012E000FCE6C0467FF3FFFF7DF30000FFFF000038
:1012F0000EAB02AA984694463C000D230834634482
:1013000000930222434602212000FFF79FFD0028A0
:1013100000D0DAE602AA94460D236344009310221B
:10132000434606212000FFF791FD002800D0CCE6BF
:10133000ECE60EAB02AA984694463C000D2310340E
:10134000634400930222434603212000FFF77EFD01
:10135000002800D0B9E602AA94460D236344009306
:101360001022434607212000FFF770FD002800D01F
:10137000ABE6CFE60EAB02AA984694463C000D239E
:101380001834634400930222434614212000FFF7DF
:101390005DFD002800D098E602AA94460D23634420
:1013A00000931022434615212000FFF74FFD00282F
:1013B00000D08AE6B2E60EA9002388460021404606
:1013C000515602224446C2540A205A1CD2B2A0549A
:1013D000DA1C023302A8DBB24273E15492E6102316
:1013E0009846A04400953300022203214046FFF7AF
:1013F0002DFD002800D068E600953300102207215B
:101400004046FFF723FD002800D05EE6D5E518230F
:101410009846A04400953300022214214046FFF76D
:1014200015FD002800D050E600953300102215214C
:101430004046FFF70BFD002800D046E6C1E5637883
:101440000C201D2B00DD40E60EAB98461D234246C6
:10145000138002AB9C46063041466044FFF7F2FC25
:10146000002800D031E62378022B00D1FBE063781E
:10147000002B03D09BB208221D2B02D94346082221
:101480001B8806AE72702A78DBB20232591C9B1898
:10149000DBB231702B70A278002A04D1E278002AE6
:1014A00000D16EE55FE50C201B2B00D90DE6404610
:1014B000FFF7C6FC002800D007E6032219212B788D
:1014C00006AEF2545A1CD2B2B154424611889A1C4C
:1014D000D2B2B21804331170DBB2090A51702B700A
:1014E000DCE702AB5B7B00229AE60EAB9846DEE7B8
:1014F0007B780C201D2B00DDE7E502AB9C460E241B
:101500001D2364442630210060442380FFF79AFCA9
:10151000002800D0D9E53B78022B00D1AAE07B78E7
:10152000002B03D09BB208221D2B01D9082223884F
:101530000EA988464046427002AA527BDBB20232B4
:10154000591C9B18DBB202AA01705373BA78002AA7
:101550001AD1FC78002C0ED00222414646460120CA
:10156000CA54591C9A1CC9B203337054D2B2DBB2AC
:1015700002A94B73B4547A68002A00D1C2E50C204A
:101580001C2B00DDA1E519E70C201B2B00D99CE5E5
:101590002000FFF755FC002800D096E50EAA9046E3
:1015A0000322414602AB5B7B4046CA5419215A1CB8
:1015B000D2B281549A1C2188D2B2424411700433B1
:1015C000090A5170DBB202AA5373C2E7BC6A002C4D
:1015D00000D179E503910EA98846162102AB8A460F
:1015E00016315B7B220000268B4600E0BA6A40463B
:1015F0007400A419A4001419A28841460332C254ED
:101600009A1CD2B202A8427394465246581CC0B2E9
:101610000A5462462088424410700433000A507015
:10162000DBB202AA5373A288002A11D0A168002954
:1016300000D149E54344180002F0ABFB02ABA0889F
:101640005B7B02AAC318DBB253735A46BA5C03929F
:101650000136039AF6B29642C8D3E0E502AB0E24F7
:101660009C46644494E743461B8809221D2B00D8FE
:1016700007E7FCE6238809221D2B00D858E74EE730
:1016800073DF7047F0B5474680B4804F86B00722BD
:1016900000213800FAF78CFD7D4C7E4E637835785A
:1016A000002B36D0012D00D1ACE0237A002B01D1E4
:1016B000022D36D0237D002B49D0774B98464346E8
:1016C0001B68002B02D0023D012D33D90022734B41
:1016D0001A70182200216846FAF76AFD00236A464C
:1016E00013701372327801930393022A69D0032A8C
:1016F00046D0012A32D0002A37D1674B1B68002B15
:101700003CD0674A10789847002006B004BC904649
:10171000F0BD012DC9D102233370237A002B00D0F4
:101720009EE003233370237D002B12D05A4B1B689D
:10173000002BCBD02278002AC8D05A4A1278002A2F
:10174000C4D10121554A062011709847C1E7032DE5
:10175000B3D10023524A33701370B7E769464B8206
:101760000B824F4B01970A701A706846FFF788FF8B
:101770000028CAD1484B1B68002BC2D10020C4E707
:101780006B46228B1A82A28B5A82474B1A79002A07
:1017900071D02278002A71D0424A1278002A6DD185
:1017A000694603930423023240480A720021C37041
:1017B000FFF7BAFB0028A8D10522394B1A703278FE
:1017C00099E76B46228A5A82A2891A82364B1A7985
:1017D000002A49D02278002A49D0324A1278002AB9
:1017E00045D169460424023230480A72002103932D
:1017F000C470FFF799FB002800D086E7284B3278A9
:101800001C7078E7244B2A4A98461B68002B39D075
:101810000720157098473378012B35D16378002B5A
:1018200000D178E77B78002B00D048E7BB78002B0D
:1018300000D044E7FB78002B00D040E73B79002B39
:1018400000D03CE77B79002B00D038E7BB79002B38
:1018500000D034E702233370237A002B00D160E7F5
:101860000D4B022598462AE71A7B002AB2D10222A4
:101870000B4B1A7079E71A7B002A8AD10322084B96
:101880001A7072E71370CDE71D000EE7D435002003
:10189000DC3500200E360020C83500200D36002033
:1018A00010360020CD350020FC3500209835002072
:1018B0000F36002010B500240B4B82B0187001A821
:1018C0000194FFF7A7FA082809D0002805D1019B49
:1018D000002B05D00122054B1A7002B010BD0194F7
:1018E000FFF7D0FEF9E7C0460E360020CC350020C9
:1018F00030B5038883B0112B40D0192B0AD0102BA0
:1019000001D003B030BD037D012BFAD18288454B55
:101910001A80F6E78479002CF3D1434A1378022B1E
:1019200049D0032B5ED0012BEBD140480178002930
:1019300012D03F4B5C78002C5ED19C78002C5BD1A0
:10194000DC78002C58D11C79002C55D15C79002C06
:1019500052D19B79002B4FD10223002401A8137090
:101960000194FFF757FA08282FD0002833D1019BA4
:10197000002B2BD001222F4B1A70C2E700242E4BD4
:101980001C702E4B5A68294B1A70264B82881B8874
:101990009A42B6D10125244B01A81D700194FFF78E
:1019A00039FA082811D0002815D1019B002B0DD041
:1019B000204B1D70A5E7224901A80B70032313706B
:1019C0000194FFF727FA0828CFD10194FFF75AFEB8
:1019D000002800D195E71B4B1B68002B00D190E736
:1019E00098478EE7164B1C70174B1B68002B00D1D5
:1019F00087E70020984784E701240025013901701A
:101A000001A814700195FFF705FA082807D00028EF
:101A1000E1D1019B002BD9D0064B1C7071E70195D9
:101A2000D4E7C046062900200E3600200C360020E0
:101A3000D4350020CC350020CD350020DC35002009
:101A400010360020D0350020C835002030B50238CF
:101A500083B0012803D8104C2378002B01D103B0A8
:101A600030BD002501A825700195FFF7D3F908289E
:101A700007D000280AD1019B002B03D0012323703B
:101A8000EDE70195FFF7FEFD0028E8D0034B1B684A
:101A9000002BE4D09847E2E7CC350020D035002079
:101AA0001D4B1B78012B00D070471C4B1B681B077C
:101AB000FAD1F0221A4B1B68134018D1194B1B683E
:101AC00013421CD0154B1B681B07EDD1F022144BA1
